{
    "contractName": "ZombieFeeding",
    "abi": [
        {
            "anonymous": false,
            "inputs": [
                {
                    "indexed": false,
                    "internalType": "uint256",
                    "name": "zombieId",
                    "type": "uint256"
                },
                {
                    "indexed": false,
                    "internalType": "string",
                    "name": "name",
                    "type": "string"
                },
                {
                    "indexed": false,
                    "internalType": "uint256",
                    "name": "dna",
                    "type": "uint256"
                }
            ],
            "name": "NewZombie",
            "type": "event"
        },
        {
            "anonymous": false,
            "inputs": [
                {
                    "indexed": true,
                    "internalType": "address",
                    "name": "previousOwner",
                    "type": "address"
                },
                {
                    "indexed": true,
                    "internalType": "address",
                    "name": "newOwner",
                    "type": "address"
                }
            ],
            "name": "OwnershipTransferred",
            "type": "event"
        },
        {
            "constant": false,
            "inputs": [
                {
                    "internalType": "string",
                    "name": "_name",
                    "type": "string"
                }
            ],
            "name": "createRandomZombie",
            "outputs": [],
            "payable": false,
            "stateMutability": "nonpayable",
            "type": "function"
        },
        {
            "constant": false,
            "inputs": [
                {
                    "internalType": "uint256",
                    "name": "_zombieId",
                    "type": "uint256"
                },
                {
                    "internalType": "uint256",
                    "name": "_targetDna",
                    "type": "uint256"
                },
                {
                    "internalType": "string",
                    "name": "_species",
                    "type": "string"
                }
            ],
            "name": "feedAndMultiply",
            "outputs": [],
            "payable": false,
            "stateMutability": "nonpayable",
            "type": "function"
        },
        {
            "constant": false,
            "inputs": [
                {
                    "internalType": "uint256",
                    "name": "_zombieId",
                    "type": "uint256"
                },
                {
                    "internalType": "uint256",
                    "name": "_kittyId",
                    "type": "uint256"
                }
            ],
            "name": "feedOnKitty",
            "outputs": [],
            "payable": false,
            "stateMutability": "nonpayable",
            "type": "function"
        },
        {
            "constant": true,
            "inputs": [],
            "name": "isOwner",
            "outputs": [
                {
                    "internalType": "bool",
                    "name": "",
                    "type": "bool"
                }
            ],
            "payable": false,
            "stateMutability": "view",
            "type": "function"
        },
        {
            "constant": true,
            "inputs": [],
            "name": "owner",
            "outputs": [
                {
                    "internalType": "address",
                    "name": "",
                    "type": "address"
                }
            ],
            "payable": false,
            "stateMutability": "view",
            "type": "function"
        },
        {
            "constant": false,
            "inputs": [],
            "name": "renounceOwnership",
            "outputs": [],
            "payable": false,
            "stateMutability": "nonpayable",
            "type": "function"
        },
        {
            "constant": false,
            "inputs": [
                {
                    "internalType": "address",
                    "name": "_address",
                    "type": "address"
                }
            ],
            "name": "setKittyContractAddress",
            "outputs": [],
            "payable": false,
            "stateMutability": "nonpayable",
            "type": "function"
        },
        {
            "constant": false,
            "inputs": [
                {
                    "internalType": "address",
                    "name": "newOwner",
                    "type": "address"
                }
            ],
            "name": "transferOwnership",
            "outputs": [],
            "payable": false,
            "stateMutability": "nonpayable",
            "type": "function"
        },
        {
            "constant": true,
            "inputs": [
                {
                    "internalType": "uint256",
                    "name": "",
                    "type": "uint256"
                }
            ],
            "name": "zombieToOwner",
            "outputs": [
                {
                    "internalType": "address",
                    "name": "",
                    "type": "address"
                }
            ],
            "payable": false,
            "stateMutability": "view",
            "type": "function"
        },
        {
            "constant": true,
            "inputs": [
                {
                    "internalType": "uint256",
                    "name": "",
                    "type": "uint256"
                }
            ],
            "name": "zombies",
            "outputs": [
                {
                    "internalType": "string",
                    "name": "name",
                    "type": "string"
                },
                {
                    "internalType": "uint256",
                    "name": "dna",
                    "type": "uint256"
                }
            ],
            "payable": false,
            "stateMutability": "view",
            "type": "function"
        }
    ],
    "bytecode": "608060408190526010600155662386f26fc10000600255600080546001600160a01b03191633178082556001600160a01b0316917f8be0079c531659141344cd1fd0a4f28419497f9722a3daafe3b4186f6b6457e0908290a3610a4d806100676000396000f3fe608060405234801561001057600080fd5b506004361061009e5760003560e01c8063715018a611610066578063715018a6146102755780637bff0a011461027d5780638da5cb5b146103235780638f32d59b1461032b578063f2fde38b146103475761009e565b806317a7f4cc146100a35780632052465e146100c8578063528b7b8f146101645780635f4623f11461019d5780636b0bfc80146101c3575b600080fd5b6100c6600480360360408110156100b957600080fd5b508035906020013561036d565b005b6100e5600480360360208110156100de57600080fd5b503561041c565b6040518080602001838152602001828103825284818151815260200191508051906020019080838360005b83811015610128578181015183820152602001610110565b50505050905090810190601f1680156101555780820380516001836020036101000a031916815260200191505b50935050505060405180910390f35b6101816004803603602081101561017a57600080fd5b50356104cf565b604080516001600160a01b039092168252519081900360200190f35b6100c6600480360360208110156101b357600080fd5b50356001600160a01b03166104ea565b6100c6600480360360608110156101d957600080fd5b81359160208101359181019060608101604082013564010000000081111561020057600080fd5b82018360208201111561021257600080fd5b8035906020019184600183028401116401000000008311171561023457600080fd5b91908080601f01602080910402602001604051908101604052809392919081815260200183838082843760009201919091525092955061051d945050505050565b6100c661065e565b6100c66004803603602081101561029357600080fd5b8101906020810181356401000000008111156102ae57600080fd5b8201836020820111156102c057600080fd5b803590602001918460018302840111640100000000831117156102e257600080fd5b91908080601f0160208091040260200160405190810160405280939291908181526020018383808284376000920191909152509295506106b9945050505050565b6101816106ee565b6103336106fe565b604080519115158252519081900360200190f35b6100c66004803603602081101561035d57600080fd5b50356001600160a01b031661070f565b6006546040805163e98b7f4d60e01b81526004810184905290516000926001600160a01b03169163e98b7f4d91602480830192610140929190829003018186803b1580156103ba57600080fd5b505afa1580156103ce573d6000803e3d6000fd5b505050506040513d6101408110156103e557600080fd5b5061012001516040805180820190915260058152646b6974747960d81b6020820152909150610417908490839061051d565b505050565b6003818154811061042957fe5b60009182526020918290206002918202018054604080516001831615610100026000190190921693909304601f8101859004850282018501909352828152909350918391908301828280156104bf5780601f10610494576101008083540402835291602001916104bf565b820191906000526020600020905b8154815290600101906020018083116104a257829003601f168201915b5050505050908060010154905082565b6004602052600090815260409020546001600160a01b031681565b6104f26106fe565b6104fb57600080fd5b600680546001600160a01b0319166001600160a01b0392909216919091179055565b6000838152600460205260409020546001600160a01b0316331461054057600080fd5b60006003848154811061054f57fe5b90600052602060002090600202019050600254838161056a57fe5b06925060006002848360010154018161057f57fe5b0490506040516020018080646b6974747960d81b815250600501905060405160208183030381529060405280519060200120836040516020018082805190602001908083835b602083106105e45780518252601f1990920191602091820191016105c5565b6001836020036101000a03801982511681845116808217855250505050505090500191505060405160208183030381529060405280519060200120141561062f576064810690036063015b610657604051806040016040528060068152602001654e6f4e616d6560d01b8152508261072c565b5050505050565b6106666106fe565b61066f57600080fd5b600080546040516001600160a01b03909116907f8be0079c531659141344cd1fd0a4f28419497f9722a3daafe3b4186f6b6457e0908390a3600080546001600160a01b0319169055565b33600090815260056020526040902054156106d357600080fd5b60006106de82610889565b90506106ea828261072c565b5050565b6000546001600160a01b03165b90565b6000546001600160a01b0316331490565b6107176106fe565b61072057600080fd5b61072981610912565b50565b60408051808201909152828152602080820183905260038054600181810180845560009384528551805194969295919492936002027fc2575a0e9e593c00f959f8c92f12db2869c3395a3b0502d05e2516446f71f85b01926107919284920190610980565b5060209182015160019182015592909103600081815260048352604080822080546001600160a01b0319163390811790915582526005845280822080549095019094558351828152938401869052606084840181815288519186019190915287519295507f88f026aacbbecc90c18411df4b1185fd8d9be2470f1962f192bf84a27d0704b7948694899489949293926080850192870191908190849084905b83811015610848578181015183820152602001610830565b50505050905090810190601f1680156108755780820380516001836020036101000a031916815260200191505b5094505050505060405180910390a1505050565b600080826040516020018082805190602001908083835b602083106108bf5780518252601f1990920191602091820191016108a0565b6001836020036101000a0380198251168184511680821785525050505050509050019150506040516020818303038152906040528051906020012060001c9050600254818161090a57fe5b069392505050565b6001600160a01b03811661092557600080fd5b600080546040516001600160a01b03808516939216917f8be0079c531659141344cd1fd0a4f28419497f9722a3daafe3b4186f6b6457e091a3600080546001600160a01b0319166001600160a01b0392909216919091179055565b828054600181600116156101000203166002900490600052602060002090601f016020900481019282601f106109c157805160ff19168380011785556109ee565b828001600101855582156109ee579182015b828111156109ee5782518255916020019190600101906109d3565b506109fa9291506109fe565b5090565b6106fb91905b808211156109fa5760008155600101610a0456fea265627a7a72315820e1a71cec45debfc6e0c526959659626c248a0a553a6ce48a2ce3f825ed1dee2b64736f6c63430005110032",
    "sourcePath": "/Users/boujams/Bureau/GitHub/ContractEth/zombieFeeding.sol",
    "compiler": {
        "name": "solc",
        "version": "0.5.17+commit.d19bba13"
    },
    "functionHashes": {
        "createRandomZombie(string)": "7bff0a01",
        "feedAndMultiply(uint256,uint256,string)": "6b0bfc80",
        "feedOnKitty(uint256,uint256)": "17a7f4cc",
        "isOwner()": "8f32d59b",
        "owner()": "8da5cb5b",
        "renounceOwnership()": "715018a6",
        "setKittyContractAddress(address)": "5f4623f1",
        "transferOwnership(address)": "f2fde38b",
        "zombieToOwner(uint256)": "528b7b8f",
        "zombies(uint256)": "2052465e"
    },
    "gasEstimates": {
        "creation": {
            "codeDepositCost": "527400",
            "executionCost": "62927",
            "totalCost": "590327"
        },
        "external": {
            "createRandomZombie(string)": "infinite",
            "feedAndMultiply(uint256,uint256,string)": "infinite",
            "feedOnKitty(uint256,uint256)": "infinite",
            "isOwner()": "1093",
            "owner()": "1082",
            "renounceOwnership()": "24192",
            "setKittyContractAddress(address)": "22007",
            "transferOwnership(address)": "24446",
            "zombieToOwner(uint256)": "1190",
            "zombies(uint256)": "infinite"
        }
    }
}